:100000000C9435000C945D000C945D000C945D0024
:100010000C945D000C945D000C945D000C945D00EC
:100020000C945D000C945D000C945D000C945D00DC
:100030000C945D000C945D000C945D000C945D00CC
:100040000C9423050C945D000C9458030C949B03B2
:100050000C945D000C945D000C945D000C945D00AC
:100060000C945D000C945D005E0411241FBECFEF64
:10007000D8E0DEBFCDBF11E0A0E0B1E0EEEAF2E1F2
:1000800002C005900D92AE31B107D9F721E0AEE183
:10009000B1E001C01D92A53DB207E1F710E0C5E354
:1000A000D0E004C02197FE010E940A09C433D107A1
:1000B000C9F70E9473010C9455090C94000040E0AC
:1000C00052EC61E070E08EE191E00C94D6038F92E7
:1000D0009F92AF92BF92CF92DF92EF92FF920F93D7
:1000E0001F93CF93DF93CDB7DEB7A3970FB6F894E6
:1000F000DEBF0FBECDBF8EE00E9456018C018FE0A7
:100100000E9456015C0180E10E9456014C0181E190
:100110000E945601C0900001D0900101E0900201C0
:10012000F0900301BC01990F880B990B0E94EF0717
:10013000A70196010E947B0820E030E040E85AE3E6
:100140000E947B0820E030E44CE156E40E947B08EA
:100150000E94BE074AE0CE0101960E942602B40129
:10016000990C880B990B0E94EF07A70196010E943A
:100170007B0820E030E040E85AE30E947B0820E062
:1001800030E44CE156E40E947B080E94BE074AE03E
:10019000CE0108960E942602B501BB0C880B990B74
:1001A0000E94EF07A70196010E947B0820E030E043
:1001B00040E85AE30E947B0820E030E44CE156E43A
:1001C0000E947B080E94BE074AE0CE010F960E9463
:1001D0002602B801110F880B990B0E94EF07A701A7
:1001E00096010E947B0820E030E040E85AE30E943C
:1001F0007B0820E030E44CE156E40E947B080E943A
:10020000BE074AE0CE014D960E942602BE01635E03
:100210007F4FCE0146960E9405026BE071E0CE0151
:1002200046960E949402BE01615F7F4F0E94810248
:100230006BE071E00E949402BE01685F7F4F0E94F4
:1002400081026BE071E00E949402BE016F5F7F4FFC
:100250000E948102BC018EE191E00E941105CE0155
:1002600046960E948001CE014D960E948001CE01EB
:100270000F960E948001CE0108960E948001CE0157
:1002800001960E948001A3960FB6F894DEBF0FBEC0
:10029000CDBFDF91CF911F910F91FF90EF90DF9035
:1002A000CF90BF90AF909F908F9008958E3008F0C0
:1002B0008E5087702091040190E4299F90011124B1
:1002C000822B80937C0080917A00806480937A00F6
:1002D00080917A0086FDFCCF809178002091790092
:1002E00090E0922B08950E946D050E945F00C2E984
:1002F000D3E00E9467002097E1F30E949203F9CFB8
:10030000FC01808191810C942607CF93DF93EC014F
:1003100088819981009711F00E942607198218821E
:100320001D821C821B821A82DF91CF9108950F9348
:100330001F93CF93DF93EC018B016F5F7F4F888119
:1003400099810E94A805009731F0998388831B83C7
:100350000A8381E001C080E0DF91CF911F910F916E
:100360000895CF93DF93EC0188819981892B29F03F
:100370008A819B818617970760F4CE010E949701BE
:10038000882341F08C819D81892B19F4E881F981C2
:10039000108281E0DF91CF910895EF92FF920F9349
:1003A0001F93CF93DF93EC017B018A01BA010E9476
:1003B000B101811104C0CE010E94850107C01D83D7
:1003C0000C83B701888199810E941909CE01DF91C0
:1003D000CF911F910F91FF90EF900895CF93DF93EE
:1003E000EC01FB018617970761F06081718161154F
:1003F000710529F0448155810E94CD0102C00E94FF
:100400008501CE01DF91CF910895FC011182108208
:10041000138212821582148216820C94EE01CF93FD
:10042000DF93EC016115710559F0FB01019000208B
:10043000E9F73197AF01461B570B0E94CD0102C06F
:100440000E948501CE01DF91CF9108950F931F93F4
:10045000CF93DF93CDB7DEB761970FB6F894DEBFC9
:100460000FBECDBF8C01CB01F80111821082138227
:10047000128215821482168250E0BE016F5F7F4F98
:100480000E942009BE016F5F7F4FC8010E940F02CA
:1004900061960FB6F894DEBF0FBECDBFDF91CF914E
:1004A0001F910F910895EF92FF920F931F93CF9397
:1004B000DF93FC01248135816115710511F480E021
:1004C00019C041155105A9F07B01EC018A01020F09
:1004D000131FB8010E94B101882389F32881398153
:1004E0008C819D81B701820F931F0E9419091D8382
:1004F0000C8381E0DF91CF911F910F91FF90EF90DE
:100500000895CF93DF93EC01FB0144815581608115
:1005100071810E945302811103C0CE010E948501A6
:10052000CE01DF91CF910895CF93DF93EC01611558
:10053000710561F0FB0101900020E9F73197AF01EF
:10054000461B570B0E945302811103C0CE010E942B
:100550008501CE01DF91CF910895FC012481358181
:100560006217730748F480819181009729F0FC019C
:10057000E60FF71F8081089580E00895FC0124852F
:100580003585F901E05CFF4F8081918132962081B1
:100590003181821B930B8F7399270895DC011C9680
:1005A000ED91FC911D97DF01A05CBF4F2D913C9117
:1005B000119712968D919C9111972817390739F050
:1005C0008D919C91E80FF91F808190E008958FEF45
:1005D0009FEF0895FC01A485B585FD01E05CFF4F08
:1005E000208131813296808191812817390779F0F5
:1005F00080819181A80FB91F8C91208131812F5F5B
:100600003F4F2F7333273183208390E008958FEF7E
:100610009FEF0895FC0181A1882329F0A489B58961
:100620008C9186FFFBCF11A208950F931F93CF9358
:10063000DF93FC01A685B7858D01005C1F4FE801A3
:100640008881998101968F739927AD014E5B5F4F29
:10065000EA012881398182179307D1F3E8012881C3
:100660003981A20FB31F6C93A685B785A05CBF4FDD
:1006700011969C938E93A689B7892C9181E090E086
:10068000078C02C0880F991F0A94E2F7822B8C9383
:1006900081E081A30488F589E02D808180648083D6
:1006A00081E090E0DF91CF911F910F91089508951F
:1006B0001F920F920FB60F9211242F934F935F93B7
:1006C0008F939F93EF93FF938091C00082FD1CC096
:1006D0002091C6008091C4019091C50101968F734D
:1006E00099274091C6015091C7018417950771F071
:1006F000E091C401F091C501EC57FE4F2083909327
:10070000C5018093C40102C08091C600FF91EF91A2
:100710009F918F915F914F912F910F900FBE0F90EE
:100720001F9018958EE191E00E94BE02892B11F076
:100730000C94570308951F920F920FB60F92112435
:100740002F933F938F939F93EF93FF93209180017B
:10075000309181018091820190918301281739079E
:1007600031F48091C1008F7D8093C10014C0E0916D
:100770008201F0918301E05CFE4F20818091820133
:100780009091830101968F739927909383018093B1
:1007900082012093C600FF91EF919F918F913F912D
:1007A0002F910F900FBE0F901F901895CF92DF9250
:1007B000EF92FF920F931F93CF93DF93EC016A01A7
:1007C0007B014115514E6105710509F1EC89FD89E7
:1007D00081E090E008A002C0880F991F0A94E2F718
:1007E000808360E079E08DE390E0A70196010E94AC
:1007F000E80889019A01015011092109310936954A
:10080000279517950795980101151041A8F0EC89D7
:10081000FD89108260E874E88EE190E0A7019601FE
:100820000E94E808DA01C9010197A109B109B6954A
:10083000A795979587959C01E889F9893083EA897E
:10084000FB89208319A2EE89FF89408181E090E035
:100850009C010C8C02C0220F331F0A94E2F7242B58
:100860002083EE89FF8940819C010D8C02C0220FFC
:10087000331F0A94E2F7242B2083EE89FF894081FD
:100880009C010E8C02C0220F331F0A94E2F7242B26
:100890002083EE89FF8920810F8C02C0880F991F69
:1008A0000A94E2F7809582238083DF91CF911F9194
:1008B0000F91FF90EF90DF90CF900895EEE1F1E07F
:1008C0001382128288EE93E0A0E0B0E084839583E7
:1008D000A683B78381E191E09183808384E891E0EE
:1008E0009587848780E491E09787868785EC90E000
:1008F000918B808B84EC90E0938B828B80EC90E0EA
:10090000958B848B81EC90E0978B868B82EC90E0CA
:10091000918F808F86EC90E0938F828F84E0848F1C
:1009200083E0858F87E0868F85E0878F81E080A3D5
:100930000895CF92DF92EF92FF920F931F93CF9380
:10094000DF936C01EB017B01E40EF51E00E010E08B
:10095000CE15DF0561F06991D601ED91FC91019012
:10096000F081E02DC6010995080F191FF1CFC801CC
:10097000DF91CF911F910F91FF90EF90DF90CF907B
:100980000895AF92BF92CF92DF92EF92FF920F93B2
:100990001F93CF93DF936C017B01C0E0D0E000E0B8
:1009A00010E0D70114968D919C911597C817D9071F
:1009B00088F4D601ED91FC91A080B180BE01C70101
:1009C0000E94AD02682FC601F5010995080F191F95
:1009D0002196E7CFC801DF91CF911F910F91FF9032
:1009E000EF90DF90CF90BF90AF900895DC01ED9134
:1009F000FC910190F081E02D09940F931F93CF9308
:100A0000DF93EC016DE00E94F6048C016AE0CE01F8
:100A10000E94F604800F911FDF91CF911F910F91DB
:100A200008950F931F93CF93DF93EC010E94C104AD
:100A30008C01CE010E94FD04800F911FDF91CF91A8
:100A40001F910F9108951F920F920FB60F921124CC
:100A50002F933F938F939F93AF93BF938091C9013F
:100A60009091CA01A091CB01B091CC013091C80105
:100A700023E0230F2D3720F40196A11DB11D05C0E1
:100A800026E8230F0296A11DB11D2093C801809373
:100A9000C9019093CA01A093CB01B093CC0180917E
:100AA000CD019091CE01A091CF01B091D0010196DE
:100AB000A11DB11D8093CD019093CE01A093CF01D4
:100AC000B093D001BF91AF919F918F913F912F91A2
:100AD0000F900FBE0F901F901895789484B5826088
:100AE00084BD84B5816084BD85B5826085BD85B5D2
:100AF000816085BDEEE6F0E0808181608083E1E881
:100B0000F0E01082808182608083808181608083B8
:100B1000E0E8F0E0808181608083E1EBF0E08081BB
:100B200084608083E0EBF0E0808181608083EAE78D
:100B3000F0E0808184608083808182608083808116
:100B4000816080838081806880831092C1000895D5
:100B50006F927F928F929F92AF92BF92CF92DF92CD
:100B6000EF92FF920F931F93CF93DF93EC010097C7
:100B700089F4CB01DF91CF911F910F91FF90EF90FE
:100B8000DF90CF90BF90AF909F908F907F906F90AD
:100B90000C949106FC01E60FF71F9C0122503109CD
:100BA000E217F30708F4ACC0D9010D911C9111971D
:100BB00006171707B0F00530110508F49FC0C801EB
:100BC00004978617970708F499C002501109061B6D
:100BD000170B019311936D937C93CF010E9426070D
:100BE0008DC05B01A01AB10A4C01800E911EA0912C
:100BF000D301B091D40140E050E0E12CF12C1097EA
:100C000009F44AC0A815B905D1F56D907C901197EB
:100C1000630182E0C80ED11CCA14DB0480F1A30179
:100C20004A195B096A0182E0C80ED11C1296BC9079
:100C300012971396AC91B5E0CB16D10440F0B28276
:100C4000A38351834083D9016D937C930AC00E5FC7
:100C50001F4FC301800F911FF90191838083EB2DFA
:100C6000FA2FE114F10431F0D7011396FC93EE93BF
:100C7000129744C0F093D401E093D3013FC08D910B
:100C80009C9111974817590708F4AC017D01129601
:100C90000D90BC91A02DB3CF8091D1019091D20144
:100CA00088159905E1F446175707C8F480910501A6
:100CB00090910601009741F48DB79EB740910901CC
:100CC00050910A01841B950BE817F907C8F4F093BB
:100CD000D201E093D101F901718360830FC0CB0190
:100CE0000E9491067C01009759F0A801BE010E9464
:100CF0001009CE010E942607C70104C0CE0102C020
:100D000080E090E0DF91CF911F910F91FF90EF90E5
:100D1000DF90CF90BF90AF909F908F907F906F901B
:100D20000895CF93DF938230910510F482E090E034
:100D3000E091D301F091D40120E030E0C0E0D0E0B8
:100D4000309711F14081518148175907C0F0481779
:100D5000590761F482819381209719F09B838A83DC
:100D60002BC09093D4018093D30126C02115310567
:100D700019F04217530718F49A01BE01DF01EF0181
:100D80000280F381E02DDCCF2115310509F1281B0C
:100D9000390B2430310590F412968D919C91139764
:100DA0006115710521F0FB019383828304C0909348
:100DB000D4018093D301FD01329644C0FD01E20FBE
:100DC000F31F81939193225031092D933C933AC0A4
:100DD0002091D1013091D201232B41F420910701C0
:100DE000309108013093D2012093D1012091050167
:100DF000309106012115310541F42DB73EB74091E0
:100E0000090150910A01241B350BE091D101F091A9
:100E1000D201E217F307A0F42E1B3F0B2817390766
:100E200078F0AC014E5F5F4F2417350748F04E0F46
:100E30005F1F5093D2014093D1018193919302C0DF
:100E4000E0E0F0E0CF01DF91CF9108950F931F9381
:100E5000CF93DF93009709F48CC0FC013297138283
:100E600012820091D3011091D4010115110581F472
:100E700020813181820F931F2091D1013091D201C5
:100E80002817390779F5F093D201E093D10171C0A9
:100E9000D80140E050E0AE17BF0750F412962D91F4
:100EA0003C911397AD012115310509F1D901F3CF1B
:100EB0009D01DA013383228360817181860F971F40
:100EC0008217930769F4EC0128813981260F371FB7
:100ED0002E5F3F4F318320838A819B81938382835E
:100EE000452B29F4F093D401E093D30142C013962B
:100EF000FC93EE931297ED01499159919E01240FB5
:100F0000351FE217F30771F480819181840F951FDB
:100F1000029611969C938E938281938113969C9353
:100F20008E931297E0E0F0E0D80112968D919C919B
:100F30001397009719F0F8018C01F6CF8D919C91D1
:100F400098012E5F3F4F820F931F2091D101309166
:100F5000D2012817390769F4309729F41092D40187
:100F60001092D30102C0138212821093D201009317
:100F7000D101DF91CF911F910F9108950E945A08DE
:100F800088F09F5798F0B92F9927B751B0F0E1F04A
:100F9000660F771F881F991F1AF0BA95C9F714C0FA
:100FA000B13091F00E947408B1E008950C94740877
:100FB000672F782F8827B85F39F0B93FCCF3869533
:100FC00077956795B395D9F73EF490958095709590
:100FD00061957F4F8F4F9F4F0895E89409C097FB0D
:100FE0003EF490958095709561957F4F8F4F9F4F00
:100FF0009923A9F0F92F96E9BB279395F695879544
:1010000077956795B795F111F8CFFAF4BB0F11F406
:1010100060FF1BC06F5F7F4F8F4F9F4F16C08823AD
:1010200011F096E911C0772321F09EE8872F762FE3
:1010300005C0662371F096E8862F70E060E02AF024
:101040009A95660F771F881FDAF7880F9695879510
:1010500097F9089597F99F6780E870E060E0089538
:101060009FEF80EC089500240A94161617061806C0
:101070000906089500240A9412161306140605069C
:101080000895092E0394000C11F4882352F0BB0F2D
:1010900040F4BF2B11F460FF04C06F5F7F4F8F4F90
:1010A0009F4F089557FD9058440F551F59F05F3FCB
:1010B00071F04795880F97FB991F61F09F3F79F07A
:1010C00087950895121613061406551FF2CF4695FC
:1010D000F1DF08C0161617061806991FF1CF86957E
:1010E0007105610508940895E894BB276627772762
:1010F000CB0197F908950E948E080C9441080E9434
:10110000330838F00E943A0820F0952311F00C942F
:101110002A080C94300811240C9475080E94520877
:1011200070F3959FC1F3950F50E0551F629FF0013A
:10113000729FBB27F00DB11D639FAA27F00DB11D53
:10114000AA1F649F6627B00DA11D661F829F2227DC
:10115000B00DA11D621F739FB00DA11D621F839F63
:10116000A00D611D221F749F3327A00D611D231F39
:10117000849F600D211D822F762F6A2F11249F5787
:1011800050409AF0F1F088234AF0EE0FFF1FBB1F8A
:10119000661F771F881F91505040A9F79E3F510549
:1011A00080F00C942A080C9475085F3FE4F3983E95
:1011B000D4F3869577956795B795F795E7959F5FF3
:1011C000C1F7FE2B880F911D9695879597F9089585
:1011D000A1E21A2EAA1BBB1BFD010DC0AA1FBB1F3B
:1011E000EE1FFF1FA217B307E407F50720F0A21BAD
:1011F000B30BE40BF50B661F771F881F991F1A941A
:1012000069F760957095809590959B01AC01BD0143
:10121000CF010895EE0FFF1F0590F491E02D099482
:10122000FB01DC0102C001900D9241505040D8F703
:101230000895FB01DC0101900D920020E1F7089573
:101240004532510520F4423010F00C942B09FB017B
:101250001082CB010895BB27FB015527AA27880FD1
:10126000991FAA1FA41710F0A41B83955051B9F71A
:10127000A05DAA3308F0A95DA193009779F7B11199
:10128000B1931192CB010C944509DC01FC01672F4D
:1012900071917723E1F7329704C07C916D9370834D
:0E12A0006291AE17BF07C8F30895F894FFCF10
:1012AE006666A240010000D501800020000000000B
:0E12BE000015039904BE02EA02CE020A0300E4
:00000001FF
